:0200000480007A
:100000006F00C0006F0000006F00800297020000C8
:1000100093824202739052307350003073504030DC
:100020009381010017C103001301C1DE6F00801826
:10003000130101F823201100232221002324310081
:100040002326410023285100232A6100232C71001C
:10005000232E8100232091022322A1022324B10216
:100060002326C1022328D102232AE102232CF102F4
:10007000232E0103232011052322210523243105EA
:100080002326410523285105232A6105232C7105C8
:10009000232E8105232091072322A1072324B107C2
:1000A0002326C1072328D107232AE107232CF107A0
:1000B000F3221034232E510673252034F3251034F7
:1000C00013060100EF00C04273101534B722000080
:1000D0009382028073A0023083200100032141003B
:1000E000832181000322C1008322010103234101F6
:1000F000832381010324C1018324010203254102DA
:10010000832581020326C1028326010303274103BD
:10011000832781030328C1038328010403294104A1
:1001200083298104032AC104832A0105032B410585
:10013000832B8105032CC105832C0106032D410669
:10014000832D8106032EC106832E0107032F41074D
:10015000832F810713010108730020300000000085
:10016000130101FD2326810213040103232EA4FCA5
:10017000232CB4FC8327C4FD2326F4FE6F008001EA
:100180008327C4FE23A007008327C4FE938747006C
:100190002326F4FE0327C4FE832784FDE3F2E7FE53
:1001A00013000000130000000324C1021301010327
:1001B00067800000130101FE232E1100232C810013
:1001C00013040102B7370080938707AB2326F4FEA0
:1001D0008327C4FE2320F4FE232204FE232404FEEE
:1001E0009385019713850190EFF09FF7B7C70180C2
:1001F000938507E113850197EFF09FF6930704FEBF
:100200009385070013051000EF20406D13000000D8
:100210008320C101032481011301010267800000D2
:10022000130101FF232681001304010113000000C4
:100230000324C1001301010167800000130101FDC7
:100240002326810213040103232EA4FCF32740F18B
:100250002326F4FE8327C4FE2324F4FE3707004040
:100260008327C4FD93D75700832684FE93965600B8
:10027000B386F600B717000093870780B387F600B0
:1002800093972700B307F70083A707002322F4FE04
:100290008327C4FD93F7F70113071000B317F70086
:1002A00093C7F7FF032744FEB377F7002322F4FE3A
:1002B000370700408327C4FD93D75700832684FE69
:1002C00093965600B386F600B71700009387078011
:1002D000B387F60093972700B307F700032744FE80
:1002E00023A0E700130000000324C102130101034F
:1002F00067800000130101FE232E81001304010218
:10030000F32740F12326F4FE8327C4FE2324F4FEC2
:1003100037070040832784FE938707209397C70001
:10032000B307F70083A74700138507000324C10123
:100330001301010267800000130101FD23268102E1
:1003400013040103232EA4FCF32740F12326F4FE1B
:100350008327C4FE2324F4FE37070040832784FE4E
:10036000938707209397C700B307F7000327C4FDBF
:1003700023A2E700130000000324C10213010103BC
:1003800067800000130101FE232E81001304010287
:10039000F36704302326F4FE130000000324C10198
:1003A0001301010267800000130101FE232E1100DA
:1003B000232C81001304010293070008F3B7473090
:1003C0002326F4FEEF10802237070044B7C7000051
:1003D000B307F70003A787FF83A7C7FF03A5019013
:1003E00083A5419037080044F32640F12324D4FE2E
:1003F000832884FE3306A700130306003333E3008B
:10040000B386B700B307D30093860700130706002F
:1004100093870600B716000093860680B386D8003F
:1004200093963600B306D80023A0E60023A2F60078
:1004300093070008F3A747302322F4FE13000000BF
:100440008320C101032481011301010267800000A0
:10045000130101FE232E1100232C8100130401023D
:10046000EFF05FE92326A4FEA30504FEB737008062
:10047000138707BF8327C4FE93972700B307F700AE
:1004800083A70700E780070093070500A305F4FE94
:100490000325C4FEEFF05FEA0347B4FE93071000A4
:1004A0006316F7000325C4FEEFF05FD913000000C8
:1004B0008320C10103248101130101026780000030
:1004C000130101FF232611002324810013040101DD
:1004D000EF10C022B707004423A00700130000005C
:1004E0008320C10003248100130101016780000003
:1004F000130101FE232E1100232C8100130401029D
:100500002326A4FE2324B4FE8327C4FE63D207025D
:100510000327C4FEB707008093C7F7FF3377F700C0
:100520009307B0006316F700EFF09FF26F008007AB
:100530008327C4FE63D207020327C4FEB7070080E7
:1005400093C7F7FF3377F700930770006316F70040
:10055000EFF09FE56F0000058327C4FE63D207021A
:100560000327C4FEB707008093C7F7FF3377F70070
:10057000930730006316F700EFF09FF46F008002DE
:1005800013065000B7370080938587AB1305100022
:10059000EF20004C8327C4FE9387170013850700C4
:1005A000EF008050832784FE138507008320C1015C
:1005B000032481011301010267800000130101FF80
:1005C000232681001304010193070000138507000F
:1005D0000324C1001301010167800000130101FF22
:1005E00023268100130401019307000013850700EF
:1005F0000324C1001301010167800000130101FF02
:1006000023268100130401019307000013850700CE
:100610000324C1001301010167800000130101FFE1
:1006200023268100130401019307000013850700AE
:100630000324C1001301010167800000130101FFC1
:10064000232681001304010193070000138507008E
:100650000324C1001301010167800000130101FFA1
:10066000232681001304010193070000138507006E
:100670000324C1001301010167800000130101FF81
:10068000232681001304010193070000138507004E
:100690000324C1001301010167800000130101FF61
:1006A000232681001304010193070000138507002E
:1006B0000324C1001301010167800000130101FF41
:1006C000232681001304010193070000138507000E
:1006D0000324C1001301010167800000130101FF21
:1006E00023268100130401019307000013850700EE
:1006F0000324C1001301010167800000130101FF01
:1007000023268100130401019307000013850700CD
:100710000324C1001301010167800000130101FFE0
:1007200023268100130401019307000013850700AD
:100730000324C1001301010167800000130101FFC0
:10074000232681001304010193070000138507008D
:100750000324C1001301010167800000130101FFA0
:10076000232681001304010193070000138507006D
:100770000324C1001301010167800000130101FF80
:10078000232681001304010193070000138507004D
:100790000324C1001301010167800000130101FF60
:1007A000232681001304010193070000138507002D
:1007B0000324C1001301010167800000130101FF40
:1007C000232681001304010193070000138507000D
:1007D0000324C1001301010167800000130101FF20
:1007E00023268100130401019307000013850700ED
:1007F0000324C1001301010167800000130101FF00
:1008000023268100130401019307000013850700CC
:100810000324C1001301010167800000130101FFDF
:1008200023268100130401019307000013850700AC
:100830000324C1001301010167800000130101FFBF
:10084000232681001304010193070000138507008C
:100850000324C1001301010167800000130101FF9F
:10086000232681001304010193070000138507006C
:100870000324C1001301010167800000130101FF7F
:10088000232681001304010193070000138507004C
:100890000324C1001301010167800000130101FF5F
:1008A000232681001304010193070000138507002C
:1008B0000324C1001301010167800000130101FF3F
:1008C000232681001304010193070000138507000C
:1008D0000324C1001301010167800000130101FF1F
:1008E00023268100130401019307000013850700EC
:1008F0000324C1001301010167800000130101FFFF
:1009000023268100130401019307000013850700CB
:100910000324C1001301010167800000130101FFDE
:1009200023268100130401019307000013850700AB
:100930000324C1001301010167800000130101FFBE
:10094000232681001304010193070000138507008B
:100950000324C1001301010167800000130101FF9E
:10096000232681001304010193070000138507006B
:100970000324C1001301010167800000130101FF7E
:10098000232681001304010193070000138507004B
:100990000324C1001301010167800000130101FF5E
:1009A000232681001304010193070000138507002B
:1009B0000324C1001301010167800000130101FD40
:1009C000232611022324810213040103232EA4FCF5
:1009D000232CB4FC13062000B7370080938507ACA6
:1009E0000325C4FDEF20C00693078000A307F4FE93
:1009F0006F0080098347F4FE9387F7FF2307F4FE17
:100A00008347E4FE939727001307F000B317F7001E
:100A100013870700832784FD3377F7008347E4FEBD
:100A200093972700B357F700A306F4FE0347D4FEBD
:100A30009307900063EEE7008347D4FE9387070394
:100A400093F7F70F9397870193D787416F00800142
:100A50008347D4FE9387770393F7F70F9397870124
:100A600093D787412306F4FE9307C4FE13061000B4
:100A7000938507000325C4FDEF10907D8347F4FEA6
:100A80009387F7FFA307F4FE8347F4FEE39407F68A
:100A900013000000130000008320C1020324810220
:100AA0001301010367800000130101FD23261102D9
:100AB0002324810213040103232EA4FCB7370080F2
:100AC000938747AC2326F4FE0325C4FEEF10C0092C
:100AD00093070500138607008325C4FE1305200035
:100AE000EF1010778327C4FD9385070013052000BE
:100AF000EFF0DFEC6F000000130101FE232E8100F8
:100B0000130401022326A4FE0327C4FE930710004A
:100B10006308F7000327C4FE930720006316F7005D
:100B2000930710006F0000011307900023AAE190C3
:100B300093070000138507000324C101130101027C
:100B400067800000130101FE232E810013040102BF
:100B50002326A4FE0327C4FE23AAE1909307F0FFF7
:100B6000138507000324C1011301010267800000FF
:100B7000130101FD23261102232481021304010322
:100B8000232EA4FC232CB4FC232AC4FC832784FD3D
:100B90002324F4FE0325C4FDEFF01FF693070500A0
:100BA000638C070883A701916390070293061000E6
:100BB0001306C002B715007013858190EF0040172F
:100BC0001307100023A8E190232604FE6F00800580
:100BD000032784FE8327C4FEB307F7001306100023
:100BE0009385070013858190EF000026032784FE7C
:100BF0008327C4FEB307F70003C707009307A000CD
:100C0000631CF70013061000B7370080938547AECA
:100C100013858190EF0040238327C4FE938717003C
:100C20002326F4FE0327C4FE832744FDE362F7FA7C
:100C3000832744FD6F00000113059000EFF09FF043
:100C400093070500138507008320C1020324810256
:100C500013010103678000002320B50067800000B6
:100C60000325050067800000138E0600331EBE00BA
:100C7000337ECE00032305009303060093C3F3FFE6
:100C8000337373003363C301232065006780000062
:100C9000032505003375C5003355B5006780000096
:100CA0002310B50067800000031505006780000071
:100CB000138E0600331EBE00337ECE0003130500E4
:100CC0009303060093C3F3FF337373003363C301CD
:100CD0002310650067800000031505003375C5000B
:100CE0003355B500678000002300B5006780000021
:100CF0000305050067800000138E0600331EBE004A
:100D0000337ECE00030305009303060093C3F3FF75
:100D1000337373003363C3012300650067800000F1
:100D2000030505003375C5003355B5006780000025
:100D3000130101FD23261102232481021304010360
:100D4000232EA4FC232CB4FC930706001387060073
:100D5000231BF4FC93070700A30AF4FC8327C4FDBC
:100D6000638A070C034754FD9307700063E4E70CA4
:100D7000035764FDB7270000637EF70A832784FDCD
:100D800013878700835764FD93F7F70F9385070058
:100D900013050700EFF05FF5832784FD9386C700F6
:100DA000034754FD835764FD93D7574093F7877FDC
:100DB000B367F7009385070013850600EFF0DFF2B5
:100DC0008327C4FD032784FD23A0E7008327C4FDF8
:100DD00083A707009387070113850700EFF05FF1F2
:100DE0009307050093F72700A307F4FE6F00800325
:100DF0008327C4FD83A70700938747001385070057
:100E0000EFF01FEF8327C4FD83A707009387070137
:100E100013850700EFF0DFED9307050093F7270038
:100E2000A307F4FE8347F4FEE39407FC8327C4FD85
:100E300023820700130000008320C10203248102E3
:100E40001301010367800000130101FD2326110235
:100E50002324810213040103232EA4FC232CB4FCBD
:100E6000232AC4FC8327C4FD63800708832784FDED
:100E7000638C0706832744FD63880706232604FE48
:100E80006F00C0058327C4FD83A707009387070170
:100E900013850700EFF0DFE59307050093F71700D0
:100EA000A305F4FE8347B4FEE38E07FC8327C4FD4D
:100EB00083A60700032784FD8327C4FEB307F7003A
:100EC00083C707009385070013850600EFF0DFE175
:100ED0008327C4FE938717002326F4FE0327C4FE4E
:100EE000832744FDE360F7FA130000008320C1026A
:100EF000032481021301010367800000130101FD37
:100F0000232611022324810213040103232EA4FCAF
:100F1000232CB4FC8327C4FD63800708832784FD4A
:100F2000638C0706232604FE6F00C0058327C4FDDB
:100F300083A707009387070113850700EFF05FDBA6
:100F40009307050093F71700A305F4FE8347B4FE4B
:100F5000E38E07FC8327C4FD83A60700032784FDD7
:100F60008327C4FEB307F70083C7070093850700F4
:100F700013850600EFF05FD78327C4FE9387170021
:100F80002326F4FE032784FD8327C4FEB307F7005E
:100F900083C70700E39C07F8130000008320C10209
:100FA000032481021301010367800000130101FC87
:100FB000232E1102232C8102130401042326A4FCF6
:100FC000232204FEEF00507283A7819263980700EA
:100FD000EF0080281307100023A4E1928327C4FCAC
:100FE000638A070293078000138707008327C4FCE6
:100FF000B387E7002326F4FC8327C4FC93F737006C
:10100000638A07008327C4FC93F7C7FF93874700D1
:101010002326F4FC8327C4FC638607140327C4FC3F
:10102000B79701009387B7FF63EEE712938781912B
:101030002324F4FE9387819183A707002326F4FEDF
:101040006F0080018327C4FE2324F4FE8327C4FE9F
:1010500083A707002326F4FE8327C4FE83A7470047
:101060000327C4FC63F8E7008327C4FE83A70700B7
:10107000E39A07FC0327C4FE938701926304F70EEB
:10108000832784FE83A7070013078000B387E70048
:101090002322F4FE8327C4FE03A70700832784FED0
:1010A00023A0E7008327C4FE03A747008327C4FCCF
:1010B000B307F74013078000131717006376F7088C
:1010C0000327C4FE8327C4FCB307F700232EF4FCD8
:1010D0008327C4FE03A747008327C4FC3307F740D8
:1010E0008327C4FD23A2E7008327C4FE0327C4FC93
:1010F00023A2E7008327C4FD83A74700232CF4FC29
:10110000938781912320F4FE6F000001832704FE62
:1011100083A707002320F4FE832704FE83A707008C
:1011200083A74700032784FDE3E2E7FE832704FE4D
:1011300003A707008327C4FD23A0E700832704FE3D
:101140000327C4FD23A0E700B737008003A707BD2E
:101150008327C4FE83A747003307F740B7370080D3
:1011600023A8E7BCEF00D05A832744FE639407000E
:10117000EF109002832744FE138507008320C103EC
:10118000032481031301010467800000130101FDA2
:10119000232611022324810213040103232EA4FC1D
:1011A0008327C4FD2324F4FE8327C4FD638C070832
:1011B00093078000B307F040032784FEB307F700CE
:1011C0002324F4FE832784FE2322F4FEEF00D05173
:1011D000832744FE83A747002320F4FE9387819151
:1011E0002326F4FE6F0000018327C4FE83A70700B7
:1011F0002326F4FE8327C4FE83A7070083A74700A6
:10120000032704FEE3E2E7FE8327C4FE03A70700EB
:10121000832744FE23A0E7008327C4FE032744FE60
:1012200023A0E700832744FE03A74700B7370080C9
:1012300083A707BD3307F700B737008023A8E7BCB3
:10124000EF00104D130000008320C102032481022F
:101250001301010367800000130101FE232E8100AA
:1012600013040102B7370080938747D493F7C7FF71
:101270002326F4FE938781910327C4FE23A0E70071
:101280009387819123A207009387019237970100EA
:101290001307C7FF23A2E7009387019223A007004B
:1012A0008327C4FE2324F4FE832784FE379701009E
:1012B0001307C7FF23A2E700832784FE1387019249
:1012C00023A0E700130000000324C1011301010261
:1012D00067800000130101FE232E81001304010228
:1012E000F32740F12326F4FE8327C4FE2324F4FED3
:1012F000F36744302322F4FE37070044832784FE3B
:1013000093972700B307F7001307100023A0E70007
:10131000130000000324C1011301010267800000D3
:10132000130101FF232681001304010173700430AF
:10133000B737008083A747BD13871700B7370080F2
:1013400023AAE7BC130000000324C100130101011C
:1013500067800000130101FF2326810013040101AF
:10136000B737008083A747BD1387F7FFB7370080E3
:1013700023AAE7BCB737008083A747BD6394070063
:1013800073600430130000000324C1001301010145
:1013900067800000130101FE232E81001304010267
:1013A000B735008083A585BD83A505002324B4FE41
:1013B000232604FEB735008083A585BD83A545009F
:1013C000138605009306000093170600130700001C
:1013D000832684FEB3E6E6002324D4FE8326C4FEDF
:1013E000B3E7F6002326F4FE032684FE8326C4FE1C
:1013F0003745010013058543930500003307A60018
:10140000130307003333C300B387B600B306F300FA
:10141000938706002324E4FE2326F4FEB7370080DA
:1014200083A7C7BD032784FE23A0E7008327C4FE4C
:1014300013D8070093080000B737008083A7C7BD03
:101440001307080023A2E7009307000873A04730A2
:10145000130000000324C101130101026780000092
:10146000130101FE232E810013040102B735008011
:1014700083A585BD83A505002324B4FE232604FE91
:10148000B735008083A585BD83A54500138605007B
:10149000930600009317060013070000832684FEBE
:1014A000B3E6E6002324D4FE8326C4FEB3E7F600A9
:1014B0002326F4FE032684FE8326C4FE374501005E
:1014C00013058543930500003307A60013030700A7
:1014D0003333C300B387B600B306F3009387060027
:1014E0002324E4FE2326F4FEB737008083A7C7BD7C
:1014F000032784FE23A0E7008327C4FE13D8070038
:1015000093080000B737008083A7C7BD1307080002
:1015100023A2E7009307000873A0473013000000E0
:101520000324C1011301010267800000130101FFC0
:101530002326810013040101B737008003A747BDAC
:101540009307F0FF6306F700737004306F0000002C
:10155000737004306F000000130101FE232E810020
:10156000130401022326A4FE2324B4FE2322C4FE76
:101570008327C4FE9387C7FF2326F4FE032784FE38
:101580008327C4FE23A0E7008327C4FE938787FA3E
:101590002326F4FE032744FE8327C4FE23A0E7008E
:1015A0008327C4FE938787FE2326F4FE93870100DA
:1015B000138707008327C4FE23A0E7008327C4FE08
:1015C000938747FF2326F4FEB71700801387C7527F
:1015D0008327C4FE23A0E7008327C4FE13850700EA
:1015E0000324C1011301010267800000130101FF00
:1015F00023261100232481001304010183A20193F7
:1016000023A0C200EFF01FD9EF00D02693070500FA
:1016100063840700EF00D04403A10193032101007C
:101620008322C10773901234832001000322C1007A
:101630008322010103234101832381010324C1018A
:101640008324010203254102832581020326C1026E
:101650008326010303274103832781030328C10352
:10166000832801040329410483298104032AC10436
:10167000832A0105032B4105832B8105032CC1051A
:10168000832C0106032D4106832D8106032EC106FE
:10169000832E0107032F4107832F810713010108C0
:1016A00073002030130000008320C1000324810058
:1016B0001301010167800000130101FF23261100BF
:1016C0002324810013040101EFF09FD9B737008074
:1016D00023AA07BC1307100023A6E192EFE09FCADC
:1016E000EFF05FBF93070000138507008320C10060
:1016F000032481001301010167800000130101FF31
:1017000023261100232481001304010103A7C192A1
:10171000930710006318F7001307200023A6E19237
:101720006F00000183A2019323A0C200EF00503399
:10173000B707004423A0070003A101930321010080
:101740008322C10773901234832001000322C10059
:101750008322010103234101832381010324C10169
:101760008324010203254102832581020326C1024D
:101770008326010303274103832781030328C10331
:10178000832801040329410483298104032AC10415
:10179000832A0105032B4105832B8105032CC105F9
:1017A000832C0106032D4106832D8106032EC106DD
:1017B000832E0107032F4107832F8107130101089F
:1017C00073002030130000008320C1000324810037
:1017D0001301010167800000130101FF232611009E
:1017E0002324810013040101EFF0DFAE1300000099
:1017F0008320C100032481001301010167800000E0
:10180000130101FE232E8100130401022326A4FEEE
:101810008327C4FE138787008327C4FE23A2E70023
:101820008327C4FE1307F0FF23A4E7008327C4FE29
:10183000138787008327C4FE23A6E7008327C4FEFF
:10184000138787008327C4FE23A8E7008327C4FEED
:1018500023A00700130000000324C10113010102AB
:1018600067800000130101FE232E81001304010292
:101870002326A4FE8327C4FE23A80700130000002C
:101880000324C1011301010267800000130101FD5F
:101890002326810213040103232EA4FC232CB4FC71
:1018A0008327C4FD83A747002326F4FE832784FDF6
:1018B0000327C4FE23A2E7008327C4FE03A78700F3
:1018C000832784FD23A4E7008327C4FE83A7870022
:1018D000032784FD23A2E7008327C4FE032784FD9A
:1018E00023A4E700832784FD0327C4FD23A8E70082
:1018F0008327C4FD83A70700138717008327C4FD30
:1019000023A0E700130000000324C1021301010318
:1019100067800000130101FD2326810213040103E7
:10192000232EA4FC232CB4FC832784FD83A707006B
:101930002324F4FE032784FE9307F0FF631AF700C5
:101940008327C4FD83A707012326F4FE6F0040030D
:101950008327C4FD938787002326F4FE6F000001D0
:101960008327C4FE83A747002326F4FE8327C4FEF3
:1019700083A7470083A70700032784FEE372F7FECF
:101980008327C4FE03A74700832784FD23A2E70023
:10199000832784FD83A74700032784FD23A4E70052
:1019A000832784FD0327C4FE23A4E7008327C4FE06
:1019B000032784FD23A2E700832784FD0327C4FDBA
:1019C00023A8E7008327C4FD83A707001387170018
:1019D0008327C4FD23A0E700130000000324C102F5
:1019E0001301010367800000130101FD232681021A
:1019F00013040103232EA4FC8327C4FD83A707013E
:101A00002326F4FE8327C4FD83A747000327C4FDD4
:101A10000327870023A4E7008327C4FD83A787004B
:101A20000327C4FD0327470023A2E7008327C4FE42
:101A300083A747000327C4FD631AF7008327C4FD6B
:101A400003A787008327C4FE23A2E7008327C4FDE2
:101A500023A807008327C4FE83A707001387F7FF87
:101A60008327C4FE23A0E7008327C4FE83A70700C3
:101A7000138507000324C1021301010367800000DE
:101A8000130101FD2326810213040103232EA4FC6C
:101A9000232CB4FC232AC4FC0327C4FD832744FD64
:101AA000B367F70093F7370063980706832784FD31
:101AB00093F7F70F2322F4FE832744FE93978700C2
:101AC000032744FEB367F7002322F4FE832744FE76
:101AD00093970701032744FEB367F7002322F4FE20
:101AE0008327C4FD2326F4FE6F0080018327C4FEF4
:101AF000138747002326E4FE032744FE23A0E700C4
:101B00000327C4FD832744FDB307F7000327C4FE62
:101B1000E36EF7FC6F0000048327C4FD2324F4FE6A
:101B20006F000002832784FE138717002324E4FE3E
:101B3000032784FD13178701135787412380E7008C
:101B40000327C4FD832744FDB307F700032784FE62
:101B5000E36AF7FC8327C4FD138507000324C10251
:101B60001301010367800000130101FD2326810298
:101B700013040103232EA4FC8327C4FD2326F4FEB3
:101B80006F0000018327C4FE938717002326F4FE0D
:101B90008327C4FE83870700E39607FE0327C4FE5E
:101BA0008327C4FDB307F740138507000324C10250
:101BB0001301010367800000130101FC232E1102B1
:101BC000232C810213040104232EA4FC232CB4FC37
:101BD0002328D4FC2326E4FC2324F4FC232204FD44
:101BE000232014FD93070600231BF4FC8327C4FD68
:101BF00063960700737004306F0000000327C4FC75
:101C00009307400063F6E700737004306F00000034
:101C1000835764FD832544FC13850700EF001029DA
:101C20002324A4FE832784FE63820716832784FE71
:101C300003A70703835664FDB70700409387F7FFA8
:101C4000B387F60093972700B307F7002322F4FE2B
:101C5000832744FE93F7C7FF2322F4FE832744FE25
:101C600093F7370063860700737004306F0000003D
:101C7000835764FD13870700832604FC0326C4FCF6
:101C8000832584FD032584FEEF00C06F032604FD39
:101C90008325C4FD032544FEEFF01F8C13070500C8
:101CA000832784FE23A0E700832784FC6388070042
:101CB000832784FC032784FE23A0E700EFF04FE690
:101CC00083A701941387170023A0E19483A70193AE
:101CD00063900702032784FE23A8E19203A70194DF
:101CE000930710006316F702EF00407D6F0040027B
:101CF00083A7C194639E070083A7019383A7C702AC
:101D00000327C4FC6366F700032784FE23A8E1923F
:101D100083A7C1951387170023AEE19403A7C1954C
:101D2000832784FE23A4E704832784FE03A7C70236
:101D300083A7819463F8E700832784FE03A7C70283
:101D400023A4E194832784FE03A7C7029307070017
:101D500093972700B387E7009397270037C7018041
:101D6000130707D43387E700832784FE9387470050
:101D70009385070013050700EFF05FB1930710008C
:101D80002326F4FEEFF00FDD6F00C0009307F0FF95
:101D90002326F4FE0327C4FE930710006310F70206
:101DA00083A7C194638C070083A7019383A7C7020D
:101DB0000327C4FC63F4E700EFF01FA28327C4FEEF
:101DC000138507008320C103032481031301010449
:101DD00067800000130101FD2326110223248102E4
:101DE00013040103232EA4FC232604FE8327C4FD31
:101DF0006384070483A741966386070073700430E9
:101E00006F000000EF00400E83A741940327C4FD3C
:101E1000B307F7002324F4FE83A7019393874700B9
:101E200013850700EFF05FBC032584FEEF00807F81
:101E3000EF00000E2326A4FE8327C4FE6394070050
:101E4000EFF09F99130000008320C1020324810258
:101E50001301010367800000130101FE232E11000E
:101E6000232C8100130401029308000013080000D2
:101E700093070000130700009306000013060040BC
:101E8000B7350080938585AE372500801305C534AE
:101E9000EFF09FD22326A4FE0327C4FE9307100071
:101EA0006312F702737004301307F0FF23A0E1966A
:101EB0001307100023A6E19423A20194EFF0CFFFB3
:101EC0006F0040018327C4FE6396070073700430DF
:101ED0006F000000130000008320C1010324810172
:101EE0001301010267800000130101FF2326810016
:101EF0001304010183A741961387170023A2E196DB
:101F0000130000000324C1001301010167800000D9
:101F1000130101FE232E1100232C81001304010262
:101F2000232604FE83A7419663960700737004304E
:101F30006F000000EFF0CFBE83A741961387F7FF35
:101F400023A2E19683A741966398071083A7019483
:101F5000638407106F00800AB7C701809387C7DCCE
:101F600083A7C70083A7C7002324F4FE832784FE2A
:101F70009387870113850700EFF01FA7832784FE4F
:101F80009387470013850700EFF01FA6832784FE81
:101F900003A7C70283A7819463F8E700832784FE21
:101FA00003A7C70223A4E194832784FE03A7C702E3
:101FB0009307070093972700B387E70093972700BD
:101FC00037C70180130707D43387E700832784FED0
:101FD000938747009385070013050700EFF01F8BD9
:101FE000832784FE03A7C70283A7019383A7C702A1
:101FF0006366F7001307100023AAE194B7C70180B6
:102000009387C7DC83A70700E39807F483A70195AC
:10201000638807026F004002EF00C00593070500C8
:10202000638607001307100023AAE19483A7019594
:102030001387F7FF23A8E19483A70195E39E07FC8C
:1020400003A74195930710006318F700930710004A
:102050002326F4FEEFF04FF8EFF0CFAF8327C4FE56
:10206000138507008320C1010324810113010102AC
:1020700067800000130101FD232611022324810241
:1020800013040103232604FE83A741966390071AD5
:1020900083A741941387170023A2E19483A7419457
:1020A0002324F4FE832784FE6390070483A74193CF
:1020B00083A7070063860700737004306F00000079
:1020C00083A741932322F4FE03A7819323AAE192DD
:1020D000032744FE23ACE19283A781951387170061
:1020E00023ACE194EF00806C83A70196032784FE64
:1020F0006360F71083A7419383A7070063960700E7
:10210000930710006F0080009307000063880700AA
:102110001307F0FF23A0E1966F00800D83A7419382
:1021200083A7C70083A7C7002320F4FE832704FEEC
:1021300083A74700232EF4FC032784FE8327C4FDD6
:102140006378F7000327C4FD23A0E1966F00400ADF
:10215000832704FE9387470013850700EFF0DF888D
:10216000832704FE83A78702638A0700832704FE70
:102170009387870113850700EFF01F87832704FEED
:1021800003A7C70283A7819463F8E700832704FEAF
:1021900003A7C70223A4E194832704FE03A7C70271
:1021A0009307070093972700B387E70093972700CB
:1021B00037C70180130707D43387E700832704FE5E
:1021C000938747009385070013050700EFF00FEC96
:1021D000832704FE03A7C70283A7019383A7C7022F
:1021E000E36AF7F0930710002326F4FE6FF09FF0E8
:1021F00083A7019303A7C702B7C70180938607D4BB
:102200009307070093972700B387E700939727006A
:10221000B387F60003A707009307100063FEE700EB
:10222000930710002326F4FE6F00000183A7019599
:102230001387170023A8E19483A7419563860700BD
:10224000930710002326F4FE8327C4FE138507009E
:102250008320C1020324810213010103678000006F
:10226000130101FE232E81001304010283A741966E
:10227000638807001307100023AAE1946F00000C85
:1022800023AA01946F00000283A78194639607003C
:10229000737004306F00000083A781941387F7FFE9
:1022A00023A4E19403A78194B7C70180938607D440
:1022B0009307070093972700B387E70093972700BA
:1022C000B387F60083A70700E38007FC03A7819488
:1022D0009307070093972700B387E700939727009A
:1022E00037C70180130707D4B387E7002326F4FE1E
:1022F0008327C4FE83A7470003A747008327C4FEA4
:1023000023A2E7008327C4FE03A747008327C4FE58
:1023100093878700631CF7008327C4FE83A74700C9
:1023200003A747008327C4FE23A2E7008327C4FE38
:1023300083A7470003A7C70023A8E192130000006A
:102340000324C1011301010267800000130101FE93
:10235000232E1100232C8100130401022326A4FE46
:10236000EF00C021B7C70180938707D403A70700F8
:102370009307100063F4E700EFF00FC6EF0000636F
:102380006FF01FFE130101FC232E1102232C81028A
:1023900013040104232EA4FC232CB4FC232AC4FC24
:1023A0002328D4FC930707002317F4FC232604FEFC
:1023B0006F004004032784FD8327C4FEB307F700A2
:1023C000038707008326C4FD8327C4FEB387F60076
:1023D000238AE702032784FD8327C4FEB307F7009F
:1023E00083870700638007028327C4FE9387170053
:1023F0002326F4FE0327C4FE9307F000E3FCE7FA6C
:102400006F008000130000008327C4FDA381070430
:10241000032744FD9307400063F6E700930740005D
:10242000232AF4FC8327C4FD032744FD23A6E702E7
:102430008327C4FD032744FD23A8E7048327C4FDA5
:1024400023AA07048327C4FD938747001385070049
:10245000EFF04FC18327C4FD9387870113850700E1
:10246000EFF04FC08327C4FD0327C4FD23A8E70076
:1024700013075000832744FD3307F7408327C4FD2B
:1024800023ACE7008327C4FD0327C4FD23A2E70292
:102490008327C4FD23A207048327C4FD23AC0704BC
:1024A0008327C4FD23AE0704130000008320C1036B
:1024B000032481031301010467800000130101FE5E
:1024C000232E1100232C810013040102232604FE75
:1024D0006F0080030327C4FE93070700939727002C
:1024E000B387E7009397270037C70180130707D406
:1024F000B387E70013850700EFF08FB08327C4FE92
:10250000938717002326F4FE0327C4FE9307400099
:10251000E3F2E7FCB7C70180138547DAEFF04FAE6F
:10252000B7C70180138587DBEFF08FADB7C7018098
:102530001385C7DCEFF0CFACB7C70180138507DE8A
:10254000EFF00FACB7C70180138547DFEFF04FAB5B
:1025500037C70180130747DA23AAE19237C7018002
:10256000130787DB23ACE192130000008320C10135
:10257000032481011301010267800000130101FEA1
:10258000232E1100232C8100130401026F00800709
:10259000EFF09F95B7C70180938707DE83A70700F9
:1025A00093B7170093F7F70F2326F4FEEFF05F962B
:1025B0008327C4FE63980704EFE09FD6B7C7018066
:1025C000938707DE83A7C70083A7C7002324F4FEF1
:1025D000832784FE9387470013850700EFF0CFC061
:1025E00083A701941387F7FF23A0E19483A7C193E6
:1025F0001387F7FF23AEE192EFE0DFD5032584FEDA
:10260000EF00C01683A7C193E39407F813000000FE
:10261000130000008320C101032481011301010282
:1026200067800000130101FE232E1100232C81007E
:10263000130401022326A4FE83A701930327C4FEEB
:1026400023A2E70083A741940327C4FE6370F70227
:1026500003A7819383A7019393874700938507007E
:1026600013050700EFF00FAB6F00000303A74193C2
:1026700083A70193938747009385070013050700FD
:10268000EFF04FA983A701960327C4FE6376F700F6
:102690000327C4FE23A0E196130000008320C1019C
:1026A000032481011301010267800000130101FD71
:1026B000232611022324810213040103930705003A
:1026C000232CB4FC231FF4FC832784FD639E0700A6
:1026D0008357E4FD9397270013850700EFE01F8DD4
:1026E000930705006F008000832784FD2324F4FEF8
:1026F000832784FE638A070213050006EFE01F8B21
:102700002326A4FE8327C4FE638A07008327C4FE12
:10271000032784FE23A8E7026F004001032584FEFF
:10272000EFE0DFA66F008000232604FE8327C4FEAF
:10273000638207028327C4FE03A707038357E4FDD0
:1027400093972700138607009305500A1305070087
:10275000EFF00FB38327C4FE138507008320C10267
:10276000032481021301010367800000130101FEAD
:10277000232E1100232C8100130401022326A4FE22
:102780008327C4FE83A7070313850700EFE01FA07C
:102790000325C4FEEFE09F9F130000008320C101CA
:1027A000032481011301010267800000130101FE6F
:1027B000232E81001304010283A7419383A70700FE
:1027C00063960700930710006F00800093070000D6
:1027D000638807001307F0FF23A0E1966F00000253
:1027E00083A7419383A7C70083A7C7002326F4FECE
:1027F0008327C4FE03A7470023A0E196130000002F
:102800000324C1011301010267800000130101FECE
:10281000232E810013040102F32740F12324F4FE48
:10282000832784FE2322F4FE232604FE6F00C003C8
:1028300037070040832744FE939657008327C4FE42
:10284000B386F600B717000093870780B387F600BA
:1028500093972700B307F70023A007008327C4FE40
:10286000938717002326F4FE8327C4FEE38207FC28
:10287000232604FE6F004002370700408327C4FE72
:1028800093972700B307F70023A007008327C4FE10
:10289000938717002326F4FE0327C4FE9307E00165
:1028A000E3FCE7FC37070040832744FE93870720BB
:1028B0009397C700B307F70023A00700B7170000DE
:1028C00093870780F3A747302320F4FE130000000E
:1028D0000324C1011301010267800000130101FFFD
:1028E000232611002324810013040101EFF01FF2BD
:1028F000930610001306C002B71500701385819669
:10290000EFE00FC3B7370080938587B013858196BA
:10291000EFE0CFDEB73700809385C7B4138581968B
:10292000EFE0CFDD930800001308000093070000DC
:1029300013072000930600001306803EB735008081
:10294000938545B9373500801305859CEFF0CFA6F8
:10295000930800001308000093070000130700000D
:10296000930600001306803EB73500809385C5B9F5
:10297000373500801305859FEFF00FA4EFF0CFCD22
:1029800093070000138507008320C1000324810002
:102990001301010167800000130101FF232681005C
:1029A00013040101737004306F000000130101FF74
:1029B0002326810013040101130000000324C10039
:1029C0001301010167800000130101FE232E110095
:1029D000232C8100130401022326A4FEB7370080B4
:1029E000938547BA13858196EFE04FD113054006D2
:1029F000EFF04FBE6FF09FFE130101FD2326110281
:102A00002324810213040103232EA4FCB787007042
:102A10002326F4FE8327C4FE1307A00023A0E700AB
:102A200013055000EFF00FBB8327C4FE83A70700F8
:102A30002324F4FE13055000EFF0CFB9130000007B
:102A40008320C10203248102130101036780000077
:102A50009306060013860500930505001705000080
:102A6000032545186F004000130101FF2324810056
:102A70001304050013850500930506001386060060
:102A800023AA019023261100EFE08F8E9307F0FF19
:102A90006318F50083A74191638407002320F400A5
:102AA0008320C1000324810013010101678000001D
:102AB00068656C6C6F000000747261700A00000041
:102AC000307800000A50726F67616D206861732072
:102AD000657869746564207769746820636F6465DC
:102AE0003A0000000D00000049444C450000000081
:102AF0000D0A4672656552544F53204578616D70DA
:102B00006C650D0A000000000D0A0D0A09095361E9
:102B10006D706C652044656D6F6E7374726174695D
:102B20006F6E206F66204672656552544F53207059
:102B30006F727420666F72204D692D562070726F0F
:102B4000636573736F722E0D0A0D0A0009095468CC
:102B500069732070726F6A65637420637265617453
:102B60006573202074776F207461736B7320616EBE
:102B7000642072756E73207468656D2061742072B4
:102B80006567756C617220696E74657276616C73CD
:102B90002E0D0A0055417274310000007461736B90
:102BA000310000005461736B202D2031202D206FE7
:102BB00069650D0A000000005461736B202D2074BC
:102BC0006573746574650D0A000000000000000064
:102BD000FC8F0100AAAAAAAAF8BF00440040004442
:102BE000702C0080000000000000000000000000C9
:102BF000BC050080DC050080FC0500801C06008010
:102C00003C0600805C0600807C0600809C060080FC
:102C1000BC060080DC060080FC0600801C070080EB
:102C20003C0700805C0700807C0700809C070080D8
:102C3000BC070080DC070080FC0700801C080080C7
:102C40003C0800805C0800807C0800809C080080B4
:102C5000BC080080DC080080FC0800801C090080A3
:102C60003C0900805C0900807C0900809C09008090
:102C70000000000000000000000000000000000054
:102C80000000000000000000000000000000000044
:102C90000000000000000000000000000000000034
:102CA0000000000000000000000000000000000024
:102CB0000000000000000000000000000000000014
:102CC0000000000000000000000000000000000004
:040000058000000077
:00000001FF
